:1020000000800020716900005969000059690000D2
:1020100000000000000000000000000000000000C0
:1020200000000000000000000000000059690000EE
:10203000000000000000000059690000C5690000B0
:102040005969000059690000596900005969000088
:102050005969000059690000F93E00005D690000FF
:1020600059690000BD4D0000596900005969000020
:10207000E13A000059690000CD4D000059690000A7
:102080005969000059690000596900005969000048
:1020900000000000596900005969000059690000FA
:1020A0005969000059690000596900005969000028
:1020B0000000000010B5064C2378002B07D1054B1B
:1020C000002B02D0044800E000BF0123237010BDA4
:1020D00020010020000000004C960000044B10B5C9
:1020E000002B03D00349044800E000BF10BDC046E8
:1020F00000000000240100204C960000E121F0B512
:10210000234E85B04902300003F044FA214C2000F0
:1021100000F0BEF8042201211F4802F0C5F9002892
:1021200004D130001D4902F0D5FEFEE701271C490D
:10213000300002F0CFFE1B4D00233C22022128007C
:10214000009700F0AFFF0390002808D11649300037
:1021500002F0B6FE0D20039904F05AFEFEE73900A6
:10216000280001F0F5FAAA25002320001900FA2220
:10217000009500F00EFA0023FA22390020000095A5
:1021800000F007FA200000F0D5F805B0F0BDC04619
:102190002C0F0020E00100203C01002040840000C2
:1021A000488400004C0100207184000030B5194BB8
:1021B00085B00293184B194D019301235B420093A4
:1021C0002022174B8021280000F054FE154C2800D7
:1021D0002200154904F07CFF00230221134A144D0C
:1021E0005371937193721373124A13481160013241
:1021F000D377124A5360106053722800523305227D
:1022000000F0B0F9220028000D4904F061FF05B08C
:1022100030BDC046A0860100801A06004C01002097
:102220002002002000000020D52E00003C010020EC
:10223000E0010020F801002040900000B8010020DB
:102240007522000010B5094C200000F01AFF200094
:10225000062100F0A9FD064B00212000636100F07B
:1022600035FB200001F0CEF910BDC0464C01002026
:102270000FF80FF810B50400C06805F03BF806230E
:10228000E05E002802DB002104F092FD200010BD7A
:1022900010B504000623C05E002807DB012104F00E
:1022A00087FD00210623E05E04F0B2FD0123637088
:1022B00010BD70B50500C0680E0005F01BF82B7C42
:1022C000EC7CE41A631E9C4103347443A4B22000E6
:1022D000AC8005F005F8E860002805D02200002158
:1022E00005F01BF86E8070BDA8806880FBE70322B4
:1022F000F8B58B110D118E101640134015400A4091
:10230000467482740026FF228A427641C268C47CE9
:10231000077CC37405740670002A0AD0E21B5B1B9D
:1023200051424A4159424B419A4202D04188FFF7FB
:10233000C0FFF8BDF8B5C3680400002B00D1EFE082
:1023400096256D0004F052FB6369984201D26061EA
:10235000F8E7C01AA842F5D372B60622A35E182287
:10236000012053436F4FA688FA185268DB5D9040F6
:10237000E268DB0115789619511C6B4A9F186B4A6D
:102380009B182278002A00D058E0803294463860AA
:10239000C046C046C046C046C046C046C046C0460D
:1023A000C046C046C0462A4200D192E0C046C04660
:1023B000C046C046C046C046C046C046C046C046ED
:1023C000C046C046C046C046C046C046C046C046DD
:1023D000C046C046C046C046C046C046C046C046CD
:1023E000C0461860C046C046C046C046C046C0464B
:1023F000C046C046C046C046C046C046C046C046AD
:10240000C046C046C046C046C046C046C046C0469C
:10241000C046C046C046C046C046C046C046C0468C
:10242000C046C046521000D170E0D2B2C046C0468D
:10243000C046C046C046C046C046A8E78022944673
:102440003860C046C046C046C046C046C046C046CA
:10245000C0462A4221D0C046C046C046C046C046FB
:10246000C046C046C046C046C046C046C046C0463C
:10247000C046C046C046C046C046C046C0461860BA
:10248000521020D0D2B2C046C046C046C046C04658
:10249000C046C046C046C046D2E71860C046C046E7
:1024A000C046C046C046C046C046C046C046C046FC
:1024B000C046C046C046C046C046C046C046C046EC
:1024C000C046C046DCE7B14226D20D7862460131F3
:1024D000B6E71860C046C046C046C046C046C046C3
:1024E000C046C046C046C046C046C046C046C046BC
:1024F000C046C046C046C046C046C046C046C046AC
:10250000C046C046C046C046C0466BE7B14203D293
:102510000D78624601313AE762B604F067FA60610D
:10252000F8BDC046509000001844004114440041DA
:1025300070B5437804000D00002B06D00623C05E62
:10254000002802DB002104F033FC6378E580002BD7
:1025500007D00121280004F02BFC0021280004F002
:1025600057FC70BD70B5040000200E001500190066
:1025700060702072E06060612000FFF7B8FE3100FB
:102580002000FFF796FE29002000FFF7D1FF200072
:1025900070BDF0B505AC257844888C4216D9047A14
:1025A000002C05D0624363436543120A1B0A2D0ABF
:1025B000C47C077CC668A74209D103246143711813
:1025C000047C0A55427C8B54837CCD54F0BD890039
:1025D000711800260E55F3E7002070477047F0B5DC
:1025E00015000C001E0089B00EAB00229B5E0FAAE6
:1025F0001288019005925A1BD11752184A40029234
:10260000321BD11752184A4003920399029A8A4208
:1026100005DD32001E00130022002C001500B4421C
:1026200005DD2A001D001300220034001600321BB5
:1026300091B20691591BC8170918414012B207916F
:10264000D10F8A1852100092012204929D4202DB9F
:1026500001235B420493B44222DC019B039A1B6872
:102660009B691F00029B934216DD22002900059BF7
:102670000198B847009B079A9A1A11B293B2009139
:10268000120406D5049AAD18069A2DB2D3181BB2BF
:102690000093013424B2DEE72A002100059BE7E71E
:1026A00009B0F0BD704710B504682469A04710BD9B
:1026B00037B506AC258804680095A46BA04737BDE4
:1026C00037B506AC258804680095E46BA04737BD94
:1026D00073B506AC0025655F07AC268804680196D3
:1026E0000095246CA04773BDF0B5160004000D00E2
:1026F00085B003930AAB1F8803685B699847039B07
:102700002268013B9B191BB2009301972B00290003
:102710002000976A3200B84723682000DB6A984798
:1027200005B0F0BDF0B505001C000E00170085B027
:102730000AAB1B88013C03930368A4195B699847A3
:1027400003992A68019100973100280023B2946A06
:102750003A00A0472B682800DB6A984705B0F0BD17
:10276000F0B50E0087B003930CAB029200229B5E83
:10277000040004930DAB1B883500059303685B6967
:102780009847039A2368B21895420BDA059A2900F4
:1027900000921B6A20001F00029A049B0135B84773
:1027A0002DB2EEE72000DB6A984707B0F0BD13B505
:1027B00001910E24015F0C22835E02680091146C6B
:1027C00000221100A04713BDF0B5040015000E0053
:1027D00087B004930CAB00229B5E05930DAB1B8866
:1027E000039303685B699847039A2368009231005A
:1027F0002A0020005F6A049BB847059B03995A1E74
:10280000236800915219310020005F6A12B2049BC4
:10281000B847039A2368009231002A0020001F6AFB
:10282000059BB8470499039A2368013900928919D6
:102830002A0020001F6A09B2059BB84723682000C0
:10284000DB6A984707B0F0BD7047F0B585B00293DA
:102850000AAB0027DF5F0BAB1B8816000393029BBC
:1028600004000D000268994210D1BE4202DD33001F
:102870003E001F00039901370091BB1B976B1BB2F1
:10288000320029002000B84705B0F0BDBE420CD18F
:10289000029B994201DD029D0291029B0399013343
:1028A0005B1B0091D76B1BB2EAE753699847039A09
:1028B00023680192009720009F6A3200029B290042
:1028C000B84723682000DB6A9847DDE703230B4005
:1028D00010B583760822835E0A24025FC90702D4FA
:1028E0008381C28110BD8281C381FBE74281C281A5
:1028F0000122002310B55242064C4261064A0834B8
:102900004360046001818181036182610377036216
:1029100010BDC0468C89000001010001F0B58DB0EA
:10292000089312AB079200229B5E0691029313ABB1
:1029300000229B5E0400099314AB1B8800260A93B7
:10294000036835005B6998470722029B0B92D91DEB
:10295000CB1713405B18DB10039333009AB2049239
:10296000079A99B28A1812B20592099A934226DA06
:102970000023029A93421CDA9AB201920B9A6D00DC
:10298000EDB2134203D1089ADB109219D55C6BB2F9
:10299000002B0ADA019B069A200099182368059AF1
:1029A0009B6909B21F000A9BB847019B01331BB208
:1029B000DFE7049B039A01331BB2B618CEE7236806
:1029C0002000DB6A98470DB0F0BD0000F0B595B06F
:1029D0001D001AAB1B88049205931BAB1E881CAB11
:1029E0001B78026A02931DAB1B78040008910393C5
:1029F000002A00D0C4E00C22835E8B4200DC7DE024
:102A00000E22835E049A934278DD0623029A534392
:102A10005B18002B72DD039B049ADB009B18002BD4
:102A20006CDD037F002B03D1AF2D01D90135EDB251
:102A3000236820005B6998470522002355430793CC
:102A4000984B0B925B190F93079A0F9B9B5C0A9311
:102A50006B469B8B09936B461B89099A0E936B46B9
:102A60001F8C029B5343FB181BB20D9308230C933E
:102A70000023069301220A9B2068134252D06B4622
:102A80001A8B198A029B012B3AD1039B012B37D158
:102A9000099B52188569D919059B12B209B2200009
:102AA000A847069B01335BB206930A9B5B080A9317
:102AB0000C9B013BDBB20C93002BDBD1079B01335A
:102AC0005BB207930B9B013BDBB20B93002BBBD19B
:102AD000059BB3420ED0029B2268012B3FD1039B82
:102AE000012B3CD105370096156A2000049A39B2B3
:102AF0000733A84723682000DB6A984715B0F0BD6C
:102B00006B4608255B5F039D6A438A18059912B2DC
:102B1000019169460C25495F0091C5690D99200016
:102B2000A847BEE7059BB342BBD06B461A8B198AF8
:102B3000029B012B0AD1039B012B07D1099B521841
:102B4000D9198569330012B209B2A8E76B46082586
:102B50005B5F039D01966A438A1812B2D9E76B4600
:102B600008215B5E05210E98019641430398791870
:102B7000C0000090D5692000049A09B2A847B9E7BF
:102B8000137A5168ED1A1268EDB2ED0013924A5BA8
:102B90004B1909929A780D92DA78119205229A5679
:102BA0009B790E925BB20F93029B012B02D8039B81
:102BB000012B56D96B4638229B5E0B936B463C2209
:102BC0009B5E0C930027236820005B69984707975A
:102BD0000697119B069A9A4200D38BE76B461B8A95
:102BE00000260A930C9B9B18039A53430A9AD31806
:102BF0001BB210933B000D9A96424BD25A1CD2B294
:102C000012920722134207D1099B0999139A0133A3
:102C1000525C9BB2079209936B461B7F5BB2002B01
:102C200017DA6B46198C029B2068012B1DD1039B80
:102C3000012B1AD10A9B0F9A9A18069BD2180E9B49
:102C400012B2C918836989191D002000059B09B2B9
:102C5000A847079B01365B00DBB20793F6B2129BD5
:102C6000C9E700230C930B93ACE76B4608229B5EED
:102C70000B9A029D92196A438918059A09B201922A
:102C80006A460C25525F0092C26920001500109A16
:102C9000A847DEE7069D0D9B0135FF18EBB2FFB29A
:102CA000069396E78B840000F0B5026A04000B00DF
:102CB00085B0002A34D10A2908D1437E0282DB0084
:102CC000628A9B186382012005B0F0BD0D29FAD0FD
:102CD000E17E007E657E00290ED01026A15F0626CB
:102CE000464389190C27E65FB14205DD1226A15F34
:102CF0002282EA00521862820290E08A1221625E09
:102D00000190A08A1026A15F009003952000FFF794
:102D10005DFE0622237E5343228A9B182382D2E73C
:102D20000A2905D100230382127B437E5343C7E760
:102D30000D29C8D0117A8B42C5D3907A9842C2D35C
:102D4000591A5068C9B2C9004518AF78002F28D069
:102D5000E978002925D0E17E207E667E002913D007
:102D600005216956C91941438C461021675EBC4450
:102D70000C21675EBC4507DD1227E15F0027278233
:102D8000127B7243521862820290E08A1221625EC4
:102D90000190A08A1027E15F009003962000FFF7C2
:102DA00015FE2B79227EB6E70B1C002900D10123EA
:102DB000037643767047F0B500294ADB0C25445F63
:102DC0008C4246DD002A44DB0E25445F944240DD00
:102DD000847E022C1FD0032C26D0012C04D1D24398
:102DE0000489A4180A0021B2012B23D0022B31D070
:102DF000002B2ED10724D31723400826855F9B186C
:102E0000DB106B4359180123224093401A00C06A1B
:102E1000435C93431CE00489013C611AD44342891A
:102E200009B2121912B2DFE74489013C641A110099
:102E300022B2D9E70725D4172C40A4182A40934082
:102E40000827C65FE4107443C06A6118425C1343EC
:102E50004354F0BD0724D31723400826855F9B18F1
:102E6000DB106B435918012322409340C06A425C37
:102E70005340EDE770B500261D0004AB04009E57DB
:102E8000FFF734FD0022104B626208332360954245
:102E900000D10E4D2300FF213333A562E262197089
:102EA0002100012336315B42A3860B7023003733A8
:102EB0001E70059B2000A365069BE365044B6366BB
:102EC000230068331A8070BD848E00002002002029
:102ED00000093D0010B50400C06A002801D004F0CC
:102EE00009FA200010BDF8B50400806A0D00002822
:102EF00012D023003033197800F0E4FCA06A0021DE
:102F000003681B689847A06A290003681B689847F4
:102F1000A06A00F04DFDF8BD226C216D1368606A57
:102F20008B431360002803D0290000F07FFEF2E7F6
:102F300008208026E36BA26BA16C17682E420ED08E
:102F4000394311601968E76C013839431960196811
:102F5000E76C7608B94319600028EDD1DBE78F43B1
:102F60001760EFE770B50400806A0D00002810D0EC
:102F7000A16D00F099FC29004D1EA9412000A63149
:102F8000FFF7B1FFA06A002810D0E16D00F08CFCC3
:102F900070BD606A002803D0616EA26E00F016FE5C
:102FA000626C616D13688B431360E4E7626C616D62
:102FB0001368606A0B4313600028E9D000F022FE1A
:102FC000E6E7F7B50400806A8B180D00019300282E
:102FD00028D027003037397800F074FCA06A00212F
:102FE000036801261B689847019BA06A9D4216D082
:102FF000FE2E0BD900F0DCFC3978A06A00F062FCF0
:10300000A06A0021036801261B689847A06A2978F6
:10301000036801361B689847B6B20135E4E700F053
:10302000C7FCF7BD226C216D13688B431360019BB5
:10303000AB42F6D02B78606A0093002804D01900C8
:1030400000F0F4FD0135F2E708208026E36BA26B67
:10305000A76C0099BC4617680E420FD061460F431B
:1030600017601F68E16C01380F431F601F68E16C37
:1030700076088F431F600028EAD1E3E761468F435B
:10308000EEE7072110B50A22835E0733DA170A40FC
:10309000D2180821435ED21000215A43C06A04F0BE
:1030A0003CF910BDF0B587B005930CAB1B7804005C
:1030B0000493C36A0F001500002B1BD02000FFF7FC
:1030C000E0FF0A23E25E0823E15E202A25DC203AA5
:1030D000D30F9A180B00733BD90FC9180123029321
:1030E0001F335210491001935333009312B2AF4B68
:1030F00009B224E00A22835E07220733D817104062
:10310000C0180822A35EC010584304F0E9F8061E58
:10311000E062D3D1300007B0F0BD403AD30F9A1827
:103120000B00523BD90FC918012302933F3301937F
:1031300012335210491000939D4B12B209B2200075
:10314000FFF7ECFB230031331F70A06A002800D189
:103150009AE0002D00D095E00A23E55E203D6A1E2E
:1031600095413C35230030331D70049B002B01D06A
:1031700000F07AFB059B002B1DD025000020373581
:103180002856002817DB012103F012FE0020012140
:10319000285603F03DFE012003F058FC00200021DA
:1031A000285603F035FE0A2003F050FC00200121D0
:1031B000285603F02DFEA06A002800D1CDE0A16DB5
:1031C00000F072FB042220007A49FFF7FAFE6189C1
:1031D00020000139C9B2FFF786FE25007649042296
:1031E0002000FFF7EEFE00233135EB561021012BB6
:1031F00000D004312000FFF776FE260004222000D4
:103200006E49FFF7DEFE8F2360363370A3686C4A89
:10321000022793420BD06B4A934200D0AAE00022CF
:10322000AA569F23012A00D0303312273370DA21A7
:103230002000FFF758FE39002000FFF754FE8121DF
:103240002000FFF750FE20003178FFF74CFED92117
:103250002000FFF748FE0023EB562221012B00D06F
:10326000CF312000FFF73FFE200006225649FFF72E
:10327000A8FEA06A002800D18AE0E16D00F014FBEE
:10328000012647E76DB26DE7250000203535285649
:103290000121270003F08CFD00203637012138562C
:1032A00003F086FD002318210126EB56474D4B43C2
:1032B0005A574748D201121822643200EB185B6853
:1032C0009A4000232265FB564B435A574149D2018D
:1032D0005118121862643200EB185B68606A9A40F9
:1032E000130062650A6913430B61002806D0049B32
:1032F000002B00D13EE700F051FD3BE72700002006
:1033000033373100385603F053FD230000203433A7
:1033100004933100185603F04BFD00231821FB568F
:103320002B484B435A57EB18D2011218A2633200B4
:103330005B689A40049BA2641B785BB24B435A576C
:10334000ED186B6823499E40D2015118E6640B6961
:103350001218B343E2630B610CE7606A002803D0E4
:10336000616EA26E00F032FC626C616D13688B437B
:10337000136027E7184A0227934200D057E700223C
:10338000AA561023012A00D09F33022733704EE73C
:10339000626C616D1368606A0B430126136000283C
:1033A00000D1B7E600F02EFCB4E6C046A48C0000C5
:1033B000E4890000EC8E0000F08E0000F48E000026
:1033C0008000200080004000F88E00005090000037
:1033D00010440041004400416000100070B5050039
:1033E000100004AA168800283EDB0A242A5F8242C5
:1033F0003ADD002902DA5B1800211BB20822AC5E1C
:103400005A18A24201DD631A1BB2002B2CDDC21038
:103410005443EA6A6118521807210840063981406E
:10342000C8B2012E0ED0022E15D0002E1CD1C043E2
:10343000C0B2013B1BB2591C16D01178014011706B
:103440000132F6E7013B1BB2591C0DD01178014344
:1034500011700132F6E7013B1BB2591C04D0117800
:10346000414011700132F6E770BD0000F0B505ACC7
:103470002488002956DB0826855FA94252DA002AF3
:1034800002DA9B1800221BB20A27C65FD718B74280
:1034900001DDB31A1BB2002B44DDD2B2D60875434E
:1034A0006918C56A072669181500DBB23540324233
:1034B00018D00822551B2A4AEDB2525DAB4203D206
:1034C000EF1AF8363E413240012C2CD0022C2ED07F
:1034D000002C02D10E7896430E70AB4222D3082600
:1034E000825F89185B1BDBB2072B0ED9022C21D11E
:1034F0001A000D78083AED430D700826855FD2B2A8
:103500004919072AF5D807221340002B0AD0154A7B
:10351000D35C012C1DD0022C1FD0002C02D10A78C4
:103520009A430A70F0BD0E7832430A70D5E70E78E0
:103530007240FAE725006A1E95411A006D42EDB20D
:103540000D700827C65F083AD2B28919072AF7D842
:10355000D9E70A7813430B70E4E70A785340FAE797
:10356000DC8E0000E48E000037B5140006AA158832
:10357000827E022A0DD0032A18D0012A11D1E243FB
:103580000489A41824B20A0000952100FFF76EFFF9
:103590000BE0E2434489C918A418028924B2511AE5
:1035A00009B222000095FFF719FF37BD4289C918FB
:1035B000511A09B2E7E773B5140006AA1688827E8D
:1035C000022A0DD0032A18D0012A11D10589E41846
:1035D0002C1B24B20A0000962100FFF7FFFE0BE02F
:1035E000CA4345890189E41889182C1B09B224B201
:1035F00022000096FFF73AFF73BDCA43418989183C
:1036000009B2E7E7F7B50400806A002848D0A16D49
:1036100000F04AF9052220004B49FFF7D2FC21892E
:1036200020000139C9B2FFF75EFC07210A23E25EE0
:10363000A06A0732D3170B409B182289DB10534333
:103640009BB2E66A0093002840D0270030373978D3
:1036500000F038F9A06A4021036801251B689847EB
:10366000009BA06A013B9BB21A000093374B9A4221
:1036700023D0FE2D0BD900F09BF93978A06A00F019
:1036800021F9A06A4021036801251B689847A06AB8
:103690003178036801351B689847ADB20136DFE722
:1036A000606A002803D0616EA26E00F08FFA626C2F
:1036B000616D13688B431360ACE700F079F9A06A81
:1036C000002836D0E16D00F0EFF8F7BD226C216DD7
:1036D000136801960B431360009B013B9BB21A00D9
:1036E00000931A4B9A42EAD0019B606A197800282D
:1036F00005D000F09BFA019B01330193ECE7082011
:103700008025E36BA26BA76C16680D420ED0374381
:1037100017601E68E76C01383E431E601E68E76C48
:103720006D08BE431E600028EDD1E4E7BE4316607D
:10373000EFE7626C616D1368606A0B4313600028E9
:10374000C3D000F05FFAC0E7FE8E0000FFFF00006C
:1037500070B50400806A0D00002816D0A16D00F03D
:10376000A3F881212000FFF7BEFB00218D4202D18A
:103770002300603319782000FFF7B5FBA06A00280A
:1037800010D0E16D00F090F870BD606A002803D0A1
:10379000616EA26E00F01AFA626C616D13688B4361
:1037A0001360DEE7626C616D1368606A0B4313603F
:1037B0000028E9D000F026FAE6E7F8B505000E008B
:1037C00017000024BC4208D02B682800315D1B681C
:1037D0009847002801D00134F4E72000F8BD704775
:1037E0000300FC33196ADA69914203D01B6AC018DE
:1037F000007E704701204042FBE70300FC33D8699C
:103800001B6AC01A01D50130FF307047F7B501932C
:10381000FA238027002504009B008360114B7F0062
:1038200008330E0045602900009203603A0018300A
:1038300003F073FD23002000FC332130DD613A00EA
:103840001D622900FF3003F068FD87239B00E31809
:103850005D609D60009B20002375019B2661A5751E
:103860006375FEBD048F000070B5040018260C4976
:10387000006901F0CBFD206901F01AFC330008213A
:10388000207D084D4343EB18595603F0EDFA08210B
:10389000607D4643AD19695603F0E6FA70BDC04637
:1038A000A08601005090000070B504000D00006972
:1038B00001F013FC2900206901F0A8FD206901F046
:1038C000F7FB70BD8A2300229B00C1540C3BC31838
:1038D0005A609A600123837570470200FC32536876
:1038E00010B501339468DBB29C4202D05468015594
:1038F000536010BD10B50300827D002082420ED0BF
:10390000872292009C186268A4680132D2B2A24257
:1039100005D02133FF331800FFF7DFFF012010BD72
:103920000300FC3399685A68914206D09A68805C1B
:103930009A680132D2B29A60704701204042FBE798
:1039400000228A2370B59B00827505000E00C15CC1
:10395000006901F0F5FB002806D10321286901F078
:10396000D9FB0224200070BD872328009B00EA18A1
:10397000536894682130FF301C1B01D50134FF349B
:10398000002C0ED02C69FFF7CBFFC1B2200001F054
:1039900015FC0028E8D10321286901F0BBFB0324B2
:1039A000E0E7002EDED00321286901F0B3FBD9E760
:1039B00010B50121FFF7C4FF10BD10B51830FFF797
:1039C000AFFF10BD70B50400006901F019FC0028BC
:1039D00014D0206901F022FC002810D0206901F0E9
:1039E0008FFB0321206901F095FB8C239B00E55898
:1039F000002D39D10023FC34E361236270BD2069BE
:103A000001F016FC002809D0206901F00CFC002808
:103A100004D0206901F011FC0028DFD0206901F0FA
:103A200007FC002826D1206901F0F3FB0028E5D02F
:103A3000206901F002FC002837D087239B00E218A0
:103A4000536892689B1A01D50133FF33FF21002B85
:103A500005D020002130FF30FFF762FFC1B220699E
:103A600001F0BFFBA075C9E7236820001B699847D8
:103A7000A847BFE7206901F043FB2069032101F05B
:103A800049FB206901F0D9FB0028B7D08723002229
:103A90009B00E3185A609A600123A3758B239B0057
:103AA000E3589342AAD09847A8E72200FC32D36992
:103AB000126A0133DBB22069934206D101F017FB91
:103AC0000321206901F026FB98E701F0BBFB010010
:103AD00020001830FFF701FF206901F011FBEFE72C
:103AE00010B50248FFF76EFF10BDC046200200204F
:103AF00010B51523142202490248FFF787FE10BDB6
:103B0000200F00202002002010B500F041FB002211
:103B1000024B8000C35849331A7010BDA80400201E
:103B2000F0B5040085B01E000AAB1B78103001937D
:103B30000BAB1B78170002930CAB1B780D000393A3
:103B400000F0A8F92000243000F0A4F9220000239E
:103B50004832A363E3632364636413705370637236
:103B60009D4205D12721084B084A094803F04EFB26
:103B70002000019B25606371029B2771E371039B09
:103B8000A671237205B0F0BD288F0000398F0000A8
:103B90008D8F000030B5040085B002AD0068029141
:103BA000039201F041FA6B79227AE179206800935F
:103BB000002301F001FC2979029A206801F058FAEB
:103BC000206801F027FA05B030BD000007B5837A00
:103BD00000910192002B07D09A070AD5EFF31083CA
:103BE0005A425341C37272B60099019AFFF7D2FF4D
:103BF00007BDDB07F8D5C368014A9BB29360F3E7C2
:103C000000180040837A002B05D09A0704D5C37AA8
:103C1000002B00D062B67047DB07FCD5C368024AB0
:103C20009BB2D360F7E7C0460018004010B50068AB
:103C300001F003FA10BD000010B5006801F010FBA0
:103C400003000020834203DB0C304343014A9858B1
:103C500010BDC046F08F000010B5006801F000FBF9
:103C6000002805DB0C2343430348C018406810BDFF
:103C700001204042FBE7C046F08F000010B500680D
:103C800001F0EEFA002805DB0C2343430348C0187B
:103C9000806810BD01204042FBE7C046F08F000065
:103CA000F0B506001036050089B0300000F048F984
:103CB00000286CD12F002437380000F041F9041E91
:103CC00062D12800FFF7DAFFC1B2300000F018FA25
:103CD0000221300000F038FA01222E49300000F0B5
:103CE0000BFA300000F054FA2B4B8000C55028002E
:103CF000FFF7B2FFC1B2380000F002FA022138002B
:103D000000F022FA380000F043FA234B8000C5503F
:103D10002800FFF791FF01230100220002933000E9
:103D20002300049403940194009400F033FAA863F0
:103D30002800FFF781FF01230200210001933800D2
:103D40002300049403940294009400F023FAE8639F
:103D5000402003F0C5FA2A00483228640792002860
:103D60000BD00123137068646B6C10221819E96B77
:103D7000103403F0C9FA402CF6D1079B1B78002BB6
:103D800005D1380000F076F9300000F073F909B081
:103D9000F0BDC046093B0000A804002070B5437A7E
:103DA0000400002B03D1012243814272C36023002F
:103DB00048331B78002B02D12000FFF771FF182633
:103DC0003300082120790D4D4343EB18595603F079
:103DD0004BF833000821A0794343EB18595603F000
:103DE00043F8082160794643AD19695603F03CF861
:103DF000034B200006CBFFF7CDFE70BD50900000B6
:103E0000A00400201FB5094A094B0A49136000238A
:103E100093800293013301931633009316220133EA
:103E20000548FFF77DFE05B000BDC046A004002098
:103E300000093D00240F002054040020084B19689D
:103E4000002909D1EFF31080064A002803D172B689
:103E5000BFF35F8F013111701A6801321A60704729
:103E60006806002064060020084B1A68002A0CD05F
:103E70001A68013A1A601B68002B06D1044B1B78A4
:103E8000002B02D0BFF35F8F62B670476806002038
:103E900064060020FF2310B50370C0230021040036
:103EA0009B004170418083800C22083003F035FA7A
:103EB000200010BD01230A0010B51A40194208D095
:103EC0000C4A1370033343708368002B00D098476B
:103ED00010BD0223194204D006490B70C36842701A
:103EE000F3E704231942F3D0024A137003334370FB
:103EF0000369EAE74E48004110B5FFF79FFF0C4BFE
:103F00001B8C1B071B0F0B2B0FD80A4A99008858D4
:103F100000280AD00F2408490A78A24313430B70E3
:103F2000064B1978C9B2FFF7C5FFFFF79DFF10BD1B
:103F3000004800416C0600203F4800414E480041C7
:103F4000F8B500230278050018000B2A77D93C4EFB
:103F50002B702B780B2B07D801229A403168114225
:103F600004D001332B70F4E7012068E0FFF766FF0F
:103F70003768344C002F2BD12022334B33485969FA
:103F80000A435A611022D9690A43DA61022223885E
:103F90003900934323802388013A134323802C4B19
:103FA0006063BF32A36303F0B8F9C0223900284828
:103FB00003F0B3F94022C120264B80002380264B1A
:103FC00026491A601A581140C02212040A431A5096
:103FD00001231A00297830688A40024332600F2694
:103FE0001F4A880085501F4831400278B2430A4377
:103FF000027002201C4A1178814311701178194314
:104000001170297822698B409A43226160223F21F6
:10401000636C934363642A79636C0A401349120208
:104020000B400321134363646A79636C0A401049AF
:1040300092050B4013436364FFF716FF0020F8BDA1
:10404000600600200048004100040040A005002058
:10405000E0040020020F000000E100E0FFFF00FF8D
:104060006C0600203F48004140480041FFC0FFFF70
:10407000FFFF3FFF70B50500FFF7E0FE6B785CB215
:10408000062B2BD02B7802240B2B27D801229A4009
:10409000144B1968114221D01968914319601B68AB
:1040A000002B14D14022104BDA67BFF34F8FBFF3C0
:1040B0006F8F21000D4A0E311388A34313800C4BE0
:1040C000DA698A43DA615A6910318A435A610024F5
:1040D0002B78084A9B009C50FF232B70FFF7C4FEEF
:1040E000200070BD6006002004E100E000480041AF
:1040F000000400406C06002002329200115070470C
:10410000037870B505000C0001710B2B14D8FFF774
:1041100095FE29780F25094829400378084AAB43C2
:104120000B4303703F23516C1C40064B2402194083
:104130000C435464FFF798FE70BDC0463F480041F1
:1041400000480041FFC0FFFF037870B505000C0078
:1041500041710B2B14D8FFF771FE29780F25094800
:1041600029400378084AAB430B4303700323516C87
:104170001C40064BA40519400C435464FFF774FE21
:1041800070BDC0463F48004100480041FFFF3FFF6F
:1041900000787047F0B587B001930CAB1E780DAB7B
:1041A0001B78050002930EAB1B780078039310ABCD
:1041B0001F78049105920B2802D9002007B0F0BDAA
:1041C0006B78062BF9D0AB78002B00D179E0102169
:1041D000080003F07BF80028EFD02B783B4A1B0146
:1041E0009B181A00D168002904D0D1688B4201D0F5
:1041F000D268F7E7D06001220223AA70964203D06A
:10420000DB18022E00D01300062401881143018020
:104210000188A143018001881234A1430180153C2B
:10422000018826402A4C360221400E430680029E19
:104230000188284C16402140B6020E430680039E9A
:104240000188254C16402140F6020E430680018865
:10425000224E3A40314012030A43072102800F9A4E
:10426000114002884903D204D20C0A4302806A46F4
:1042700092884280049A4260029A002A08D0019AE9
:1042800041685A43002F01D00F9CA2408A18426017
:10429000059A8260039A002A09D0019A84685A43D9
:1042A0001300002F01D10F9A9340E318836000237D
:1042B000EA789A4203D02B78044A1B019B18C3600A
:1042C0007CE7024B0001C01895E7C046A00500201E
:1042D000FFFCFFFFFFFBFFFFFFF7FFFFFFEFFFFF0D
:1042E0000221084B00221961190030310A70064979
:1042F0005A719A719A721A73DA63996341331A7018
:104300007047C0469C0600204090000010B5010098
:104310000148FFF78BFC10BD5404002010B5FF21AD
:104320000148FFF783FC10BD5404002010B50121A3
:10433000007902F06DFD054B1A78002A04D00022A6
:1043400003481A70FFF75EFC10BDC046000700204E
:104350005404002010B5084B04001A78002A06D136
:1043600001321A70054B064806CBFFF72FFC0021DF
:10437000207902F04DFD10BD000700200407002049
:104380005404002010B583790400002B0DD023893C
:104390005A1C2281054A934202D8FFF7BFFFF6E775
:1043A0002000FFF7C3FF0023A37110BD010200002E
:1043B000030000B50800062903D9162200205A710F
:1043C00000BD0F4B052916D8002202F089FE030814
:1043D0000C0E10120B49196001209A80F0E70A496F
:1043E0009A801960ECE70949F5E70949F3E70949BB
:1043F000F1E70949EFE7094A1A600022ECE7C046F5
:104400000407002000366E0100093D0080841E0074
:1044100040420F0020A1070090D0030048E80100AF
:1044200070B50C0002F0DCFA0500FFF777FFFF28FB
:1044300006D002F0D5FA401BA042F6D3002070BD92
:104440000120FCE7F8B504000D001700FFF79AFF04
:104450002000FFF77FFF962120004900FFF7E0FFD3
:1044600040202843FFF752FF18263800F040083E4E
:10447000C0B2FFF74BFF33000833F6D19520002D73
:1044800003D06A30082D00D17838FFF73FFF0025B0
:10449000FFF744FF43B2E072002B04DAFF2D02D095
:1044A0000135EDB2F4E7F8BDF7B5002502710573EB
:1044B0008572857145710400019102F091FA012124
:1044C0000090207902F074FC0121207902F0A0FC18
:1044D000424E3000FFF762FC414B42499D80300064
:1044E0005A681960FFF772FB0A35013DFF20EDB2F3
:1044F000FFF70CFF002DF8D13000FFF783FBFA2700
:104500002000FFF727FFFF00002220001100FFF727
:1045100099FF0600E07201280CD002F061FA009BBE
:10452000C01AB842F0D9012320006371FFF7FEFEE4
:104530002800FEBDD522082120005200FFF782FF8F
:104540000423184218D026730026FA27FF00002201
:1045500037212000FFF776FF320029212000FFF7E6
:1045600071FF021EE07216D002F03AFA009BC01AE8
:10457000B842ECD90823D7E71E00FFF7CFFE013E73
:10458000F6B2E072002EF8D10223AA28CCD1802600
:104590002373F605D9E7237B022B15D13A2120009E
:1045A000FFF750FF002801D00623BDE7FFF7B6FE56
:1045B000C0231840984201D1BD3B2373FFF7AEFEE4
:1045C000FFF7ACFEFFF7AAFE2000FFF7AFFE2000CA
:1045D0000199FFF7EDFE0500AAE7C046540400204C
:1045E0000407002090D0030070B5040002F0F8F931
:1045F000962605007600FFF791FE0300E072FF2883
:104600000BD102F0EDF9401BB042F4D90F2320008A
:104610006371FFF78BFE002070BD0120FE2BFBD0E5
:104620000D23F4E7F8B516001D009A188023040046
:104630009B009A4216DC8379002B05D003688B42DD
:1046400002D10389B3421AD9237B2160032B00D006
:1046500049020A0020001121FFF7F4FE071E06D0D0
:10466000032363712000FFF761FE002029E0200092
:10467000FFF7BAFF0028F5D001232781A371238912
:10468000B34208D3069E7719B7420AD0FFF746FE19
:1046900030700136F8E7FFF741FE238901332381AB
:1046A000EDE72389ED18A37AADB22581002B04D064
:1046B000802301209B009D4203D32000FFF762FE70
:1046C0000120F8BD802307B59B0000920022FFF770
:1046D000A9FF0EBD70B5050008001400FFF716FE17
:1046E00080239B00E61820780134FFF70FFEB442C8
:1046F000F9D1FF20FFF70AFEFF20FFF707FEFFF7C3
:104700000DFE1F23E87203400120052B05D0112365
:1047100028006B71FFF70AFE002070BDF8B51D0080
:1047200004001600122300291CD0037B032B00D0A9
:1047300049020A0020001821FFF784FE0423071E07
:1047400010D13200FE212000FFF7C4FF00280AD05C
:10475000002D1AD0962120008900FFF761FE002865
:1047600006D1152363712000FFF7E0FD002010E063
:104770003A000D212000FFF765FE002801D0142328
:10478000F0E7FFF7CBFD0028F9D12000FFF7CEFDC1
:104790000120F8BD70B50500FFF7DCFDFFF7BEFD99
:1047A00004002800FF3CFFF7C1FD601E8441E0B219
:1047B00070BD0000024B034A1A6000229A807047C5
:1047C0000407002000093D00020010B5012104008B
:1047D0000C32406A00F090FA00280ED0236A002BB9
:1047E00006D1E368227A236280235B42134323725B
:1047F00020230120227A1343237210BD10B5040038
:10480000406900F0DFF9002803D0207E014B400111
:10481000C01810BD1407002070B5437A04000E00C4
:10482000002B01D1002070BDC2698A42FAD3022B4D
:1048300002D101202661F6E7002901D1E160F8E705
:10484000436A01691A7C751E09324B1ED340D5405C
:10485000AB4201D800290DD1236AE360002DE8D0D6
:104860002200E168606A0C3200F0D2F9013D0028B4
:10487000F4D1D7E7ED1AF1E770B5437A05000E00E1
:10488000002B01D1002070BD037A7F2B2CD9012190
:10489000FFF7B4FF041EF5D06B7A012B07D8EB6944
:1048A0001A0A037742771A0C1B0E8277C3772B6A9A
:1048B0009AB2A3761B0C23751B0A63750F4B120A61
:1048C0001B68E276002B0BD0210020001631183037
:1048D0009847637E227E1B021343A3741B0AE37472
:1048E0007F222B7A13402B72002E03D110222B7AB9
:1048F00093432B72300000F03FF9C4E70C0700200F
:10490000F8B5437A0400012B01D00020F8BD037AEA
:104910009A07FAD55B0713D4174B1868FFF73AFFCD
:104920000028F2D1227A202715003D403A4210D0CB
:1049300001002000FFF7A0FF237ABB432372E4E7C6
:10494000C16903698B42E7D0FFF766FF0028E3D116
:10495000DBE70A4B1B68002B03D0280000F0F4F8BB
:10496000D3E7102320691343C0052372C30D8020B1
:104970008000C01A80B2C9E718090020140900207D
:10498000F0B5437A87B004000F000292012B30D1BA
:10499000057AAB072DD56B0723D401232D09AB4333
:1049A0000393029B0093009A2369002A00D195E0AB
:1049B000606A5D0A0279DB05013A1540DB0DEDB254
:1049C0000193002D1AD1002B18D1E168002948D19C
:1049D000236A002B11D12000FFF7F6FE00280DD12D
:1049E00007E0C16903699942D7D0FFF715FF002896
:1049F000D3D101230020636085E0E3608023019A26
:104A00009B009B1A6A461688009A9BB29A4200D96C
:104A10001E1C626AE368117C023B8B405269B6B28D
:104A20009B185D1980239B009E422FD13A4B1A6838
:104A3000AA4202D1012252421A6038483A002900A3
:104A4000039B0068FFF76AFE0028D2D080239B00FA
:104A5000FF18009B9B1B9BB2009323699E19266144
:104A6000A1E705AA00F0D4F800284CD0636A059AA3
:104A70000133DB7F103B59424B4129495B420B40DC
:104A800028495B189A42A6D2E260B7E7019B002B47
:104A90001BD12369E269934217D3012000F06CF81F
:104AA0000028A6D01C4B204A1D60012311780B431F
:104AB00013703A001D4B01995B18981998420BD05E
:104AC0001178013219700133F8E70121280000F054
:104AD00079F80028EDD18CE7BF19BAE7E169227AAD
:104AE000994205D2E36180235B421343237206E0BF
:104AF0000F4B1B68002B02D0029B002BF3D1237AB3
:104B00001B0702D4029807B0F0BD01212000FFF777
:104B1000B3FE0028F6D16CE704000020180900203D
:104B2000000001F0F8FFFF0F10070020140700201D
:104B30000C07002007B56B46D97107330122190015
:104B4000FFF71EFF0EBD000010B5084C03002168E2
:104B50000120002909D00648064A0068FFF7DEFD5B
:104B6000002802D000230120236010BD140900207A
:104B7000180900201407002070B50E4D04002B7892
:104B8000002B01D101200AE003000B490B480C4A1D
:104B900009680068FFF7C2FD002801D1002070BD40
:104BA000002CEFD02000FFF7CFFF0028F6D0002325
:104BB0002B70E7E7100700200400002018090020F0
:104BC0001407002070B50E4E050033680C008342B8
:104BD0000FD00120FFF7D0FF002801D1002070BDC9
:104BE000084B2900084A1868FFF76CFD0028F5D02B
:104BF0003560064B012019780C431C70EFE7C04666
:104C000004000020180900201407002010070020CD
:104C1000C36870B5013306000C0015008B4201D249
:104C2000002070BD0136F27FC369C809102A00D187
:104C3000080AC0180D4B1B68834209D1F27F0C4B48
:104C4000102A0BD1E4B264001B5B01202B60E8E763
:104C50000021FFF7B7FF0028F0D1E1E77F210C40EA
:104C6000A4001B591B011B09EFE7C04604000020EC
:104C700014070020F7B505000C000192012901D8A6
:104C80000020FEBDC36801338B42F9D3471CFA7F75
:104C9000C669CB09102A00D10B0AF618124B1B6803
:104CA0009E4214D1FA7F114B102A17D1019AE4B217
:104CB00064001A5301200E4A1378034313702B7EAD
:104CC0008342DED9AB689E190A4B1E60D9E70021EA
:104CD0003000FFF777FF0028E4D1D1E77F21019A68
:104CE0000C40A4001A51E5E704000020140700203E
:104CF0001007002014090020F0B5146887B00500E3
:104D000002910192002C2AD00023013426000027B2
:104D10000093EB6801330393EB68BB421AD9039B02
:104D20009E4201D9022634003100280005AAFFF76F
:104D30006FFF00280ED0059A731C002A16D1029925
:104D40001A1B8A4213D1310028001B4AFFF792FF39
:104D500000280FD100230093009807B0F0BD029BFC
:104D60000468013B5A425341DBB2CFE71C001E00EE
:104D70000137D1E7B44209D2771E3200390028004A
:104D8000FFF778FF0028E5D03E00F3E7019B1968A4
:104D9000002906D1019B1C60009B002B08D1013328
:104DA000D9E722002800FFF765FF0028F2D1D1E7FC
:104DB00001342C60D0E7C046FFFFFF0F10B502485A
:104DC00001F0D0FC10BDC0461C09002010B50248FF
:104DD00001F0C8FC10BDC046180C0020F7B5012436
:104DE0000326154F1549380000F07EF81449154880
:104DF00000F07AF81449154800F076F8144915487F
:104E000000F072F81449154800F06EF8144D154979
:104E1000280000F069F83900230000960022019470
:104E2000114801F035FC290000961E231F22019431
:104E30000E4801F02DFCF7BD140F002000080042C1
:104E4000000C0042180F0020001000421C0F002030
:104E500000140042200F002000180042240F002000
:104E6000280F0020001C00421C090020180C002004
:104E7000F8B505000E0017000024BC4208D02B68CE
:104E80002800315D1B689847002801D00134F4E701
:104E90002000F8BD70B505000C00081E07D002F018
:104EA00029FE2B680200210028005B68984770BD2E
:104EB00010B50249FFF7EEFF10BDC046A0940000F8
:104EC00070B50400FFF7E6FF05002000FFF7F0FFD4
:104ED000401970BD70B50400FFF7DCFF050020002D
:104EE000FFF7E6FF401970BD016070479446F0B5CA
:104EF00005AC25789C1E621E9441624606689207A6
:104F0000376824063A432243072432600068214070
:104F1000AD01002442682943022B00D05C030A4300
:104F200022434260F0BD30B5C0250368AD031C6864
:104F300012052A402243C0240904A40221400A4346
:104F40001A6003685A6814435C6030BD012302682C
:104F500011680B43136003681A68D207FCD4DA693E
:104F6000D207F9D470470223026811680B4313601B
:104F70000268D3699B07FCD4704703681A7ED20786
:104F800002D41A7E9207FCD57047002203685A8328
:104F900070470368187E4007C00F70470368187E8B
:104FA000C0097047802302685B42117E0B43137671
:104FB00070470368588B8007C00F70470223026850
:104FC000518B0B43538370470368187EC007C00F93
:104FD00070470368188DC0B2704703681A7ED20705
:104FE000FCD589B2012019857047012203689A75A2
:104FF0007047012203681A7570470123026811681F
:105000000B43136003681A68D207FCD4DA69D2072D
:10501000F9D470470223026811680B4313600268D9
:10502000D3699B07FCD470470368DA699207FCD404
:1050300002211A688A431A6070470268936A5B0A01
:105040005B020B43936203681A7E5207FCD5986A91
:10505000C0B2704710B50548490002F04BF880B265
:10506000002801D0013880B2C0B210BD006CDC0253
:1050700070B50C000126110063080268334034400B
:10508000156824075B0723432B4313600468FFF76D
:10509000E1FF207370BD0123026811680B431360A8
:1050A00003681A68D207FCD4DA69D207F9D47047CA
:1050B0000223026811680B4313600368DA699207E0
:1050C000FCD430215A8B8A43110010220A435A83A0
:1050D0000268D3695B07FCD4704702210268136839
:1050E0008B4313600268D3699B07FCD4704780230D
:1050F0000268DB02116851680B435360704700007F
:10510000036803491A685A680A405A607047C046E3
:10511000FFFFFBFF032230B5036811401C68074DF9
:105120005A6809042A40E4061143640F5960052CAB
:1051300003D10268D3695B07FCD430BDFFFFFCFFDD
:1051400030B503680400588B8006800F022813D006
:105150005D8B0020AD06AD0F032D2ED0588B800740
:1051600005D55D8B0020AD06AD0F012D25D15D8BE2
:10517000AD06AD0F281E20D04800596A1043C90A59
:10518000C0B2C902014359622368002A08D11A7EBD
:10519000D207FCD5588B01234007C00F58400CE0C4
:1051A0001A7E9207D00F002AF4DB1A7ED207F7D5B9
:1051B000C022596892020A435A6030BD03682833FE
:1051C00019700268137EDB07D80F002B03D1538BB5
:1051D000DB07F7D570470123508B4007C00F5840BD
:1051E000F8E70368283319700268137E5B07D80F4D
:1051F000002B04DA0123508B4007C00F5840704742
:1052000003681868C006400F043843425841C0B2D2
:1052100070470368187E4007C00F70470368187E08
:10522000C007C00F70470368588BC006C00F704797
:105230000368187E8007C00F70470368588B00070B
:10524000C00F704703681A68D206520F052A02D1B0
:105250001A7E9207FCD528331878C0B27047000038
:105260000368104A934213D00F4A934212D00F4A58
:10527000934211D00E4A934210D00E4A93420FD05F
:1052800001200D4A4042934201D1063040B270479E
:105290000020FBE70120F9E70220F7E70320F5E70C
:1052A0000420F3E700080042000C00420010004216
:1052B0000014004200180042001C0042F8B5FFF73D
:1052C000CFFF00282CDB1D4BC000181805230479E4
:1052D000C3560320FF221840C0008240C021D243A1
:1052E0008140002B1DDB1F2501201D40C026A8404A
:1052F000134D7600A851C0269B089B005B19B60091
:105300009F593A401143995128603F2323408024FC
:10531000E4011C430B4B5C805A7852B2002AFBDB41
:10532000F8BD0F200340083B07489B089B001B1853
:10533000D86902401143D961E7E7C046A494000050
:1053400000E100E0000C004000ED00E0F8B50400D2
:105350000F0016001D00FFF7B1FF2000FFF7F6FD5C
:105360001C21BB000B4071072268090C0B43136022
:10537000842322689375012F1AD11021012E00D0A9
:1053800008390C4B69431868C00001F0B3FE0722CE
:10539000216802408B895203DB04DB0C13438B81B1
:1053A000226803049089DB0C400B40031843908172
:1053B000F8BDC04684000020F7B50500019308AB96
:1053C0000C0016001F78FFF718FE2800FFF776FF85
:1053D000C021C022890224040C409203BF07360575
:1053E000274316403E430C2707222B683E431E608E
:1053F000019B296813401A0080239B0213434B60D2
:105400002A68D3695B07FCD4F7BD0000F8B5040037
:105410000F00FFF753FF2000FFF73DFE1422236823
:1054200079001A600C4B25681E68300001F062FE9E
:105430000A490400300001F05DFE7D23FA21584343
:10544000C90001F057FEFF23241AE868053C1C4000
:1054500098430443EC60F8BD8400002040420F00F4
:105460003F20704713B56B460268D9710733546803
:1054700019000122A04716BD10B50221006900F0F5
:1054800029FC10BD10B50321006900F039FC10BDE6
:1054900010B51300084A0400D279002A03D1012371
:1054A0000020636010BD0A000069032100F020FDA8
:1054B0000028F4D0F6E7C0460C00002010B5054CDB
:1054C00003002068421C04D11A68180052699047F2
:1054D000206010BD58000020074A0300106810B576
:1054E000411C03D001235B42136010BD02211869E7
:1054F00000F0F0FCF9E7C0465800002010B5037832
:105500004222023303700249024800F09DFD10BDA3
:1055100014000020480F002010B5017803004278E5
:105520000020A12908D1212A05D1174917481A3A84
:1055300000F08AFD012010BD2129FCD1202A13D1C1
:1055400011491248193A00F01FFC96220E4BD20066
:10555000196891420ED1DA7901231A420AD1FA2050
:1055600001F0E0FC0020E6E7222A06D19A78064BFB
:10557000DA71EAE701F0DCFCF4E7232ADBD15A8890
:10558000034B1A60D7E7C0460C000020480F0020EC
:105590000800002070470000FA220021054B92000D
:1055A0009A60054A08321A60044A59601A611976ED
:1055B0007047C0462C0F0020D4940000480F0020F4
:1055C000704770B50F26CB1D02003240D5B22C00BB
:1055D00000093034092A00DD07341C705A1E994234
:1055E00000D170BD1300EFE710B50400806901F031
:1055F00081FEA06A01F07EFE200010BD10B50400FF
:10560000FFF7F2FF200001F06BFA200010BD000050
:1056100070B5032908D1324B8000C058002802D051
:105620000368DB68984770BD82291FD1C3B22D4D36
:105630005A01AA1891692C4C80010C40C02189059F
:1056400021439161294908334018802150612A681B
:105650005B01D01804794942214301717020995CA3
:1056600081430800302101439954DCE70029DAD155
:10567000C024C1B21B4E4A01B21893681A4DA4054A
:105680002B40234393601A4B8001C0180B005060DD
:105690003068072608335B01195CB1430E00012115
:1056A0003143195491690D402C43946170240F4982
:1056B0005161195CA1430C001021214319549168D8
:1056C0000C4CC3180C408021490321439160916820
:1056D000890B89039160402259790A435A71A2E7E4
:1056E0004C0F002000140020FFFFFF8F740F0020DC
:1056F00034110020FF3F00F0EFF31083036001231B
:10570000436072B670470368002B02D162B6BFF3E4
:105710006F8F704737B5056904006846002D14D1B6
:10572000FFF7EAFF019B621D013B02D3D57FEDB27B
:10573000FAE768460193FFF7E6FF002D01D100204C
:105740003EBD206AE369C01AFAE7FFF7D5FF2200E1
:105750000025019B3432013B02D31578EDB2FAE704
:1057600068460193FFF7CFFF002DE8D0206BE36A76
:10577000E9E70000F0B5FF2501264268836811685B
:105780002B405B01CC186419A77AD3183E43A6724C
:10579000C6689C680B4FB60436093C4034439C6095
:1057A00083682B405B01D2189468A40BA403946017
:1057B000402283682B4008335B01CB1819790A43D8
:1057C0001A71F0BDFF3F00F0F7B5056904000E0047
:1057D00017006846002D43D1FFF78EFF019B601D27
:1057E000013B5A1C0BD0C27F591E002A05D16846C6
:1057F0000193FFF788FF2800FEBD0B00F1E7684624
:105800000193FFF780FFE369AF420AD0226A9A4210
:1058100007D95A1CE261A269D3181B787355013568
:10582000F1E7226A9A42E6D10023E3610133684638
:105830002361FFF761FF22000021019B671D013BEF
:105840003532581CD3D0F97710785E1E002805D069
:10585000200011700193FFF78DFFECE73300F0E7B4
:10586000FFF74AFF2000019B3430013B5A1C06D051
:105870000278591ED5B2002AB9D00B00F6E7684667
:1058800001930025FFF73FFFE36ABD4202D0226B80
:105890009A421CD8226B9A42ADD100236846E3623B
:1058A0002361FFF729FF270022000021019B3437E5
:1058B000013B3532581C9AD0397010785E1E002892
:1058C0000DD0200011700193FFF754FFEBE75A1C35
:1058D000E262A26AD3181B7873550135D4E733000E
:1058E000E8E7F7B582684368D2B2110004000831D6
:1058F000186849014118C879C00729D50125520106
:10590000CD719B189A6861699204920C002923D189
:105910002262226A002A41D0A26A656168465A6002
:10592000FFF7EAFE342294462200019B671D013BEB
:10593000A4443532591C2DD06146FD770978581E94
:10594000CEB2002905D0019368461570FFF7DBFE43
:10595000F7BD03001670EDE72263226B002A1DD00D
:10596000002227006261A26968465A60FFF7C4FE00
:10597000019B621D9446013B34373032591C09D0DB
:1059800061463D70C97F581ECEB20029DBD10300AD
:105990001670F3E768460193FFF7B5FE2000FFF7A6
:1059A000E9FED5E713B56A4600230C00D01DD3717C
:1059B000FFF7A4FD23681818206001F02FFB6B4649
:1059C000D91D01F0F7FA236818186B462060D879C2
:1059D00016BD000003290ED180220E4B62311B68D8
:1059E000FF31585C524202435A5468226339FF32F5
:1059F000FF39995470470129FCD18022054B24318D
:105A00001B68FF31585C524202435A542822233902
:105A1000FF32EDE70014002070B500252F4B012167
:105A200004001A201D7001F0C3F901211A2001F0B1
:105A3000EFF92B4B012119201D7001F0B9F901215B
:105A4000192001F0E5F92023264A0F20D1690B43E4
:105A5000D361012224490B7813430B70234B19782F
:105A60008143197006211D782943197020490D784A
:105A70002A430A701A7802401A70602219780A4381
:105A80001A701C4B1C4A5A805A78D209FCD11B4808
:105A900000F0A0FF1A4D280001F0D4FA280001F010
:105AA000E7FA7F212B68C1201A7880000A401A701B
:105AB000042219780A430C211A701A898A43114961
:105AC0001A810A581202120A0A5080220A601978B2
:105AD0007E3A0A431A700123237070BD690F0020BB
:105AE000680F002000040040584400413C4400413D
:105AF00059440041000C004006400000D164000001
:105B00000014002000E100E00078002810D00121FE
:105B1000084B1B681A898A431A810822198B0A4389
:105B20001A830422198B0A431A830022024B1A603B
:105B30007047C04600140020F81300200A000E49E8
:105B40008B699B0B9B038B610B680221FF331972DE
:105B50009879823901439971197A8907FCD57F2098
:105B6000064B0240997A8143114380229972997AB7
:105B700052420A439A7270470014002000500041BC
:105B800010B50B790C00002B0CD10800FFF7C4FCFA
:105B9000002801D0012010BD094A93699B0B9B038B
:105BA0009361F7E701F03AFA210001F027FA0028A3
:105BB000F0D1034A93699B0B9B039361EBE7C046CB
:105BC00000140020F7B50D001100832A19D1EBB2A3
:105BD000324C5A01A21891693148AD010840C021E8
:105BE0008905014391612F4920686D1870210833A0
:105BF00055615B011A5C8A43110040220A431A5422
:105C0000F7BD022A45D1284AAB009858002802D097
:105C100003685B699847382000F05EFF234B8027BC
:105C2000036000231D4E7F00421D03620361436138
:105C3000C36146608560C760D3772F32C362036358
:105C4000040013703800537001F04AFB0190A0610A
:105C5000380001F045FBEBB25A01A062B21891681E
:105C60000F4808330840C02189050143916031681D
:105C700007265B01585CAD00B043060003203043AB
:105C80005854019B20005360FFF774FD064B5C5194
:105C9000B6E72800FFF7BCFCB2E7C04600140020BE
:105CA000FFFFFF8F740F00204C0F002000950000B5
:105CB00070B505000124064BA200D258002A05D079
:105CC00021002800FFF77EFF0134F4E770BDC046D5
:105CD0005C000020084B8A00D05810B5002803D083
:105CE00003689B68984710BD044BC9B24901591815
:105CF00088688004800CF6E74C0F00200014002018
:105D000010B50C00FFF7E6FF00280CD0064BE4B2FC
:105D100019688023083464010C1962795B421343CB
:105D200063710223E37110BD0014002070B5CBB283
:105D3000124A13485C01890189180219516091685F
:105D4000104D08330D408021890229434025916080
:105D50009168890B8903916001685A018A18167944
:105D60003543157195796D06FCD55B01C918CB7962
:105D7000DB07FCD500198068C0B270BD341100206B
:105D800000140020FF3F00F070B5140040220B4BC0
:105D90000D001B68FF3359790A435A710021FFF740
:105DA000C5FFA04200D9200000230549A34203D02B
:105DB000CA5CEA540133F9E770BDC0460014002004
:105DC0003411002010B50C48C9B24901421893683B
:105DD0009B049B0C3F2B0BD99468403B9B04A40B6A
:105DE0009B0CA4032343936041188868C0B210BD84
:105DF00093689B0B9B03F6E700140020F0B51C0092
:105E00002F4B85B01B6806000D000192002B54D06B
:105E10002C4F3B78D9B2002B02D1192000F0F8FFAB
:105E200064233B70284BAA00D058002808D0036890
:105E300022005B68019998470400200005B0F0BD7E
:105E400029003000FFF746FF844204D929003000C2
:105E5000FFF740FF040029003000FFF7B3FF0121E6
:105E6000EBB21A4F03935B010293029A3B680198CD
:105E70009B18FF335A7A0A435A72154BA901220024
:105E8000C91801F041FA002CD7D029003000FFF7E3
:105E900021FF0028D1D14021039B3A6808335B01E0
:105EA000D3181879014319710121D971029BD318B4
:105EB000FF339A7A0A439A72BFE701246442BCE72F
:105EC000F8130020680F00204C0F00200014002061
:105ED0003411002013B56B46DC1D22000123FFF7AF
:105EE0008DFF012801D1207816BD01204042FBE73B
:105EF000F0B51C003A4B85B01B680E000192002BD8
:105F00003FD08023DB019C423BD8364D2B78D9B261
:105F1000002B02D11A2000F07BFF642300272B7096
:105F2000314BB201D3180293002C2CD02F4B1B689D
:105F30000393FF2333401D0000930835039B6D013D
:105F40005D19AB79DB0921D0294B2A49186801F08A
:105F5000D1F8294B1721584301F0CCF8274BEA79A7
:105F6000920713D49A5D002A01D10138F7D2012299
:105F70009A55009B5A011D4B9B189A69920B9203EC
:105F80009A6101277F42380005B0F0BD00221B4B0B
:105F900025009A55402C00D940252A0001990298E5
:105FA00001F0B2F9009BA9045A01104B890C9B180F
:105FB000029A7F195A619A69641B920B92030A43F1
:105FC0009A61009B039A08335B01D3180222DA71AD
:105FD0005979823A0A435A71019B5B190193A3E7ED
:105FE000F8130020690F0020740F00200014002017
:105FF0008400002040420F00701101006B0F002050
:1060000070B50C001D000D4BA601F61811003000F4
:106010002A0001F079F9E4B2094A640114196661B1
:10602000A369084928000B40A361A169AB04890B4F
:106030009B0C89031943A16170BDC046740F0020F9
:1060400000140020FF3F00F0F7B5104B0F001B7845
:1060500014000190002B0CD10D4B16001D78002D63
:1060600009D00C4E0C48358828182D1901F04CF930
:1060700035802000FEBD002EFBD033007A190021B0
:106080000198FFF7BDFF2D18361AF4E7F41200202F
:10609000F5130020F6130020F5120020F8B50020BB
:1060A0000D00140000AF012A27D9D31D6A46DB0872
:1060B000DB00D31A9D46080001F01CFD6E46032349
:1060C000022200210130400030707370A2420DD2D4
:1060D000287800280AD0531CDBB20135B0549C420A
:1060E00003D00232F154D2B2F0E72200310004486A
:1060F000FFF7AAFF431E9841C0B2BD46F8BDC04697
:10610000480F0020F0B50025012785B0184B0E0080
:1061100069461F7004000095FFF744FC154B01A968
:106120000B806A3BFF3BCB716E3B0B72009B3200D6
:1061300009334B800E4B8D714F7108711D70092E04
:106140000FD00D4E092237700C4F200000953D8076
:10615000FFF77AFF69462000FFF724FC3A880849D8
:1061600035702000FFF770FF012005B0F0BDC0467C
:10617000F412002009020000F5130020F61300209D
:10618000F5120020F0B5CF7805000E0093B0022F75
:1061900009D1C9882B48FFF7B5FF441EA041C4B2FE
:1061A000200013B0F0BD00F039FF310000F016FF01
:1061B000002803D0C417241AE40FF1E7012F0BD1F4
:1061C000F2882149112A11D8D2B2002A0ED0280013
:1061D000FFF73AFF0124E3E70400032FE0D1B3788F
:1061E000002B05D1F2881949032AEDD90A78EEE788
:1061F000022B06D1B27916492800FFF74FFF0400A1
:10620000CEE7012B02D1B2791249F5E7032BC7D1B2
:10621000114B01A91868FFF7D4F9104B03A91868AE
:10622000FFF7CFF90E4B05A91868FFF7CAF90D4B18
:1062300007A91868FFF7C5F96B460533DC77B27913
:1062400001A9D9E7480F00203195000024950000EE
:1062500018950000289500000CA0800040A0800048
:1062600044A0800048A0800037B5050048780C00A5
:106270000B2810D800F034FF061B0F310F484D7566
:1062800051546E71097801AA002906D102231180A8
:106290002800FFF7B5FE01203EBD00231380324BDE
:1062A0001B78012B00D1137002230021F0E78A78BC
:1062B0000023012A09D16A4693802C4B1B78012BBD
:1062C00000D11371022301AAEFE7274A1370284A6D
:1062D00093699B0B9B039361DDE78C78012C07D1BD
:1062E000224B01AA1C70234B1B7813702300DCE7A0
:1062F00000208442D0D11C4B01301D4A1870936994
:106300009B0B9B039361C7E728008978FFF716FC76
:10631000C1E72800FFF736FFBEE70123164AC4E7AE
:106320000B780020DB06B7D12800FFF7C1FC2A203C
:106330000221A278104BFF301A600D4A13681C5CD2
:1063400021434A241954FF34195D2938FF38014389
:106350001955D4E70123094AA7E78A78074B1A6041
:10636000B5E7002098E7C0466A0F0020720F0020B2
:1063700000140020A2940000F8130020FC13002059
:106380004B4BF7B51C780700002C00D083E0494E3A
:1063900033689B8B1B070ED521002000FFF738F9CF
:1063A000326810231100FF31887A03438B72424B0D
:1063B0001C600823938333689A8B52071FD50422ED
:1063C0009A833E4A1378002B0AD01378013BDBB244
:1063D00013701378002B03D101211A2000F018FD4F
:1063E000374A1378002B0AD01378013BDBB21370C5
:1063F0001378002B03D10121192000F009FD336827
:10640000FF331A7AD2061ED510221A725979303209
:106410000A435A7160232B4938000A781A423BD14B
:10642000FFF722FF3368FF33002838D080229979A4
:1064300052420A439A711A7A520604D540221A72BD
:10644000597A0A435A72336800241D8C01239D43F4
:10645000EDB20193E1B2002D1DD02B002341019A32
:10646000134215D02300326808335B01D318DA7960
:10647000D20702D4DB799B0707D5134BA200D05873
:10648000002810D003681B689847019BA3409D43D8
:106490000134092CDED1F7BDFFF772FBC2E72021E2
:1064A0000A4A9171C7E73800FFF794FAEDE7C04652
:1064B000F513002000140020F8130020690F0020BD
:1064C000680F0020341100204C0F0020FF500041C5
:1064D00010B50248FFF754FF10BDC046480F00201A
:1064E000014B024A1A60704700140020005000411E
:1064F0000120704710B50368014A1B6A984710BD18
:10650000130400000300FC33D96F9A6F914203D04B
:10651000DB6FC018007D704701204042FBE710B5DB
:1065200004000069FEF712FD22000023FC3293678D
:10653000D3679E229200A4186366A36610BDF02361
:106540001B011940802306209B0099420AD0013389
:10655000FF330130994205D0802300205B0099422F
:1065600000D1053070470F2001400020012903D0E1
:106570000239481E8141481C70470000B923F0B51C
:10658000182785B002919B000400C05C3B000821E5
:106590004343324E1500F318595600F065FC304B5A
:1065A0000821E05C3B004343F318595600F05CFCC3
:1065B0002C4BE25C0393022A09D11133E05CFF28E3
:1065C00005D008214743F719795600F04DFCBA274A
:1065D000BF00E05DFF2819D0012100F0E9FB18227F
:1065E000E35D21495A43B356B618DB015818BB2165
:1065F000890060501D4901225B18BC21890063504D
:1066000071688A40BD21890062501A600122029B94
:1066100011002069FEF79AFE29002000FFF78FFF86
:10662000290006002000FFF79EFFF0221540303DB4
:106630006A42554103003100206901220095FEF7AE
:1066400055FC0B4B2069E25C039BE15CFEF76BFCA5
:106650002069FEF788FC05B0F0BDC04650900000F0
:10666000E5020000E7020000184400411444004124
:10667000E6020000AF2210B504000021520000F035
:106680004CFE23000022FC3320005A669A6610BD9F
:10669000F7B51D0008AB1B780400009309AB1B780D
:1066A0001600019300234360FA239B008360104B84
:1066B0000F00083303601430FFF7DCFF20007D304B
:1066C000FF30FFF7D7FFB9239B002761E654094B42
:1066D000009AE554084B2000E254019A074BE2541B
:1066E000BA22E93BFF3B9200A3541032A354FEBDF3
:1066F00044950000E5020000E6020000E702000009
:106700000300FC33586E9B6EC01A01D55F30FF301A
:10671000704710B5040020007D30FF30FFF7F0FF18
:106720000028F8D12069FEF728FC10BD10B5143000
:10673000FFF7E6FF10BD0300FC33596E9A6E9142DD
:1067400005DB5A6E986E801A5E30FF307047986E87
:106750005B6EC01A0138F9E710B57D30FF30FFF7E6
:10676000EAFF10BD70B504000069FEF722FC0028A6
:1067700005D02069FEF72DFC2069FEF71FFC20697B
:10678000FEF707FC002824D025002069FEF721FC35
:10679000AF21FC350600A86F4900013000F030FD44
:1067A000EB6F994203D0AB6FE3181E75A967BA234C
:1067B0009B00E35CFF2B0CD020001430FFF7BBFFE5
:1067C000092806DCBB23BD229B009200E358A25897
:1067D0001A602069FEF7F8FB00281DD020007D30EC
:1067E000FF30FFF78DFF002825D09E239B00E61881
:1067F000B26E736E9A421BD0BE22AF21B36EB06EE2
:10680000E3185200013049009D5C00F0F9FCB166CC
:106810002069E9B2FEF7E1FB2069FEF7BFFB002823
:1068200005D02069FEF7BEFB2069FEF7AEFB70BD08
:1068300001256D42ECE72069FEF7DBFBECE7000089
:10684000F7B5040000690E00FEF7BEFB002847D133
:10685000AF277F009E239B00E518686EAB6E390062
:106860000130019300F0CCFC019B994224D1EFF35D
:106870001083DB070ED4204B5B68DB05DA0D002BA1
:10688000E8D0103A53B212060DD49B081B4AC0330D
:106890009B009B582069FEF797FB0028DAD0200068
:1068A000FFF760FFD6E70F221340083B144A9B080E
:1068B0009B009B181B68EDE7AF21686E4900013013
:1068C00000F09EFCAB6E994205D0BE226B6E52006A
:1068D000E3189E5469662069FEF787FB0120FEBD20
:1068E00020007D30FF30FFF70BFF0028B0D13100D2
:1068F0002069FEF772FBF1E700ED00E000E100E047
:106900001CED00E070B50500FC35EA6FAB6F0400CC
:106910009A421DD0AF21EB6F4900C318E86F1E7D6E
:10692000013000F06DFCE967BA239B00E35CFF2BAC
:106930000CD020001430FFF7FEFE0A2806DDBC2331
:10694000BD229B009200E358A2581A60300070BD2F
:1069500001267642E8E7FEE7FEE70000034B10B5AC
:106960001B68002B00D0984710BDC04604150020BE
:106970000F4A1048110010B50F4B824202D09342CB
:1069800009D11300824209D100F0AEF800F082F87C
:10699000FEE710CB10C18142FBD3F3E7074A8B42DD
:1069A000F2D00021064B9A42EED202C2FBE7C0466B
:1069B000000000202001002050960000200100204F
:1069C0003415002010B500F062F8002801D100F065
:1069D00053F810BD014B18607047C04604150020E5
:1069E000014B18687047C04608150020F7B51348DA
:1069F000012284461249134C8E68636805689B0E19
:106A00001340019288686268019F920E3A4067467F
:106A10003F6893420ED1BD420CD186420AD35B1926
:106A2000FA254868AD00861B07486B437043000D8C
:106A3000C018FEBD3D0013000600E3E70815002066
:106A400010E000E000ED00E05555000070B5041EB8
:106A500011D0FFF7CBFFFA260500B60000F016F8BC
:106A6000FFF7C4FF401BB042F8D3FA23013C9B0060
:106A7000ED18002CF4D170BD10B5034A1368013332
:106A8000136000F05DFA10BD08150020704700206B
:106A90007047704710B500F0D7F800F0F3FBFFF730
:106AA000F8FF0120FFF7D2FF094C2000FEF7B4FFEA
:106AB0002000FFF729F8FBF721FBFBF7C3FBFFF7EB
:106AC000E5FF044B002BF8D000E000BFF5E7C0461F
:106AD000480F00200000000010B500F001FC10BDC0
:106AE00010B500F007FC10BD1E2270B5464847499E
:106AF000436893431C3A1343436008238C69234340
:106B00008B61434C434B9C829C8A14439C82DC687F
:106B10001442FCD00124404A14701578254203D059
:106B200055786DB2002DF8DB01249460547864B27E
:106B3000002CFBDB394C5460547864B2002CFBDB36
:106B40008224E4015480547864B2002CFBDB0224DC
:106B50009C840E34DD682542FCD0314CDC6210246C
:106B6000DD682542FCD09D8C2E4C2C439C84102447
:106B7000DD682542FCD002249D8C80262C439C8419
:106B80004024DD683542FCD0DD682542F9D0102470
:106B9000DD682542FCD000249460547864B2002C57
:106BA000FBDB214C5460547864B2002CFBDB1C6A84
:106BB0001E4D2C4080251C621C6AAC431C620323C2
:106BC00093601B4B536053785BB2002BFBDB0023BD
:106BD000FF240B72174A4B728B72CB72164B1A60E2
:106BE000164B174A1B6811689A065B01C90E2340B1
:106BF000520F12020B431343124A1385802342683B
:106C00001343436070BDC046004000410004004093
:106C10000C06000000080040000C004001050100C7
:106C2000B905FF7D040A000000070300FFFCFFFF19
:106C300003060100006CDC02840000202460800058
:106C40002060800000400042FA212E4B10B51868E9
:106C5000890000F04FFA802301385B0498424FD23C
:106C600029492A4A4860C020136A00061B021B0AF1
:106C70000343136200238B6007330B608021136A88
:106C800009061B021B0A0B431362FC22204B196AE4
:106C90000A431A62FF22196A12020A431A62A022E8
:106CA000196AD2020A431A621A4B1C005A7852B26D
:106CB000002AFBDB184A5A80184B1A00597EC90972
:106CC0000129FBD0C821890099800521D970537E04
:106CD000DB09012BFBD0C02300205B011361907006
:106CE00000F022F863785BB2002BFBDB0C4B0D4A03
:106CF0006380D379DB09012BFBD04123537010BD96
:106D0000FEE7C0468400002010E000E000ED00E057
:106D100000040040000C00401E4000000040004203
:106D200021400000004800421F4900B50B004A7E88
:106D3000D209012AFBD001380A282FD800F0D0F957
:106D40001B2E2E2E2E2E062E2E2411001A691749C8
:106D50000A400F211A615A788A43110001220A431E
:106D600010E01A6911490A400F211A615A788A43C2
:106D700011000322F3E71A690C490A400F211A6136
:106D80005A788A435A7000BD1A6908490A400F218F
:106D90001A615A788A4311000222E0E7F022196949
:106DA00012050A43F3E7C04600400042FFFFFFF030
:106DB000182310B508245843134A13181C570134DC
:106DC00012D001245B6882569C4003290CD808002D
:106DD0000E49D2015218D318403300F081F9021045
:106DE000060B02211970546010BD06211970546001
:106DF0009461F9E70621197054605461F4E7422167
:106E000019709460F0E7C0465090000000440041C3
:106E10001823F0B508245843114A13181C5701349D
:106E20001BD0012635005F688356BD400D4ADB014B
:106E30009A18906805420BD10C00601E8441D2194B
:106E40004032107834400336A400B0432043107021
:106E5000044A9B18002901D15D61F0BD9D61FCE7EA
:106E60005090000000440041182370B508264343A9
:106E70002A4AD518AE573400013607D0072907DC57
:106E800000291DDA01314C424C416442200070BDA2
:106E90000B00083BDBB20024032BF7D8092903D1F0
:106EA0002100FFF785FFF1E70A2904D10839FFF730
:106EB0007FFF0024EAE700240B29E7D10A39F0E735
:106EC0006C68012520009B56C9B262082840DB018E
:106ED0002C4211D012480E351B189A1830321078F7
:106EE000090128400143C9B2117041221B194033E6
:106EF00019780A431A70DCE70F26094D5B199A18B6
:106F0000303215781B19B5432943117041224033A3
:106F1000197804000A431A70B8E7C0465090000080
:106F200000440041014B18607047C04688000020B3
:106F30000122024B52421A607047C046880000206E
:106F4000164A10B51368591C27D0013B1360002B5B
:106F500023D172B68122124B92000433934213D391
:106F6000104A01211000147D0C42FCD02021148B0A
:106F7000FF319B085B0021431183D3610A4B1380CF
:106F80000123027D1A42FCD0BFF34F8F074B084A02
:106F9000DA60BFF34F8FC046FDE710BD88000020C8
:106FA000002000000040004102A5FFFF00ED00E0CE
:106FB0000400FA0570B50E0000254468002C0BD0C3
:106FC0002368310020005B689847002802DBE468F2
:106FD0002D18F3E701256D42280070BD70B50D0036
:106FE0004468002C08D02368290020009B6898473B
:106FF000002802D1E468F4E7200070BD70B50D00F0
:107000004468002C08D02368290020001B6898479A
:10701000002802D1E468F4E7200070BD064A01238D
:10702000116810B50C0005481C40194203D10449F1
:1070300044600180136010BD0C1500201015002065
:107040000204000070B50400012320CC00212A783E
:107050002000134380222B70520000F05EF9AB78C1
:10706000DB07FCD4AB789B07F9D46C6270BD0000E1
:107070001F22144B70B51B68590B9C0C9B011140CF
:107080005B0F22401F2900D11A391F2A00D1023A72
:10709000072B00D1043B1F2500688E01048D0A498F
:1070A0002A40214031430185018D14000A00AA4382
:1070B00022430285028D1903044B13400B430385C1
:1070C00070BDC046246080003FF8FFFFFF8FFFFFC8
:1070D000030010B50800190000F0B6F810BD00005C
:1070E00002B4714649084900095C49008E4402BC5B
:1070F0007047C046002243088B4274D303098B4279
:107100005FD3030A8B4244D3030B8B4228D3030C77
:107110008B420DD3FF22090212BA030C8B4202D319
:107120001212090265D0030B8B4219D300E0090A41
:10713000C30B8B4201D3CB03C01A5241830B8B424A
:1071400001D38B03C01A5241430B8B4201D34B0333
:10715000C01A5241030B8B4201D30B03C01A524198
:10716000C30A8B4201D3CB02C01A5241830A8B421D
:1071700001D38B02C01A5241430A8B4201D34B0206
:10718000C01A5241030A8B4201D30B02C01A52416A
:10719000CDD2C3098B4201D3CB01C01A524183091E
:1071A0008B4201D38B01C01A524143098B4201D358
:1071B0004B01C01A524103098B4201D30B01C01A83
:1071C0005241C3088B4201D3CB00C01A52418308FD
:1071D0008B4201D38B00C01A524143088B4201D32A
:1071E0004B00C01A5241411A00D20146524110468A
:1071F0007047FFE701B5002000F006F802BDC04669
:107200000029F7D076E770477047C04630B51400C4
:107210001A00094B05001B6885B0D868074B002C85
:1072200001D1074B1C00019300912B0005490294EA
:1072300000F018F800F034FD8C0000207895000074
:10724000A29400008595000010B5040004481300C6
:10725000002804D00A000220210000E000BF10BD79
:10726000000000000EB403B5010003AB044804CBDA
:107270000068019300F070F902B008BC03B0184731
:107280008C00002070B500260C4D0D4C641BA41022
:10729000A64209D1002601F0C7F80A4D0A4C641B2A
:1072A000A410A64205D170BDB300EB589847013633
:1072B000EEE7B300EB5898470136F2E7F000002004
:1072C000F0000020F00000201401002010B5034B56
:1072D0000A000100186800F073F810BD8C0000204F
:1072E00010B5034B0100186800F0B0F810BDC0469F
:1072F0008C00002010B5034B0100186800F016F850
:1073000010BDC0468C000020002310B59A4200D169
:1073100010BDCC5CC4540133F8E7030082189342DB
:1073200000D1704719700133F9E7000070B505000E
:10733000002910D00C1F2368002B00DAE418280065
:1073400000F000FF1D4A1368002B05D16360146034
:10735000280000F0FFFE70BDA34208D92168601824
:107360008342F3D118685B6841182160EEE71A0088
:107370005B68002B01D0A342F9D911685018A042D4
:107380000BD120680918501811608342E0D11868A9
:107390005B68411811605360DAE7A04202D90C2300
:1073A0002B60D5E721686018834203D118685B68B9
:1073B0004118216063605460CAE7C0461815002078
:1073C000F8B54B1E06000F001500194202D000242C
:1073D0002000F8BD082900D20827042D00D204257A
:1073E0000323390003359D4308393000491900F063
:1073F0002DF80028EBD004380368002B00DAC01801
:10740000F91C41187C420C40011D631A8C420AD0C1
:10741000C7180B2B17D90268D21A3A6003603000E4
:10742000FFF784FF38002A0003680C32C118A21845
:107430009142CDD961190A1A9B1A0260300008C125
:10744000FFF774FFC4E75B423B60ECE7F8B503234A
:10745000CD1C9D43083506000C2D1FD20C25A942DA
:107460001ED8300000F06EFE25490A681400002C7A
:107470001AD1244F3B68002B04D12100300000F0CA
:1074800027FB38602900300000F022FB431C2BD181
:107490000C233000336000F05DFE03E0002DDEDAE7
:1074A0000C2333600020F8BD23685B1B19D40B2B21
:1074B00003D92360E418256003E06368A2420ED17B
:1074C0000B60300000F046FE200007220B30231D29
:1074D0009043C21A9842E6D01B1AA350E3E75360C8
:1074E000EFE722006468C2E70323C41C9C43A04268
:1074F000E1D0211A300000F0EBFA431CDBD1C7E7E2
:10750000181500201C150020936810B5013B9360EE
:10751000002B04DA9469A34207DB0A2905D013681B
:10752000581C10601970080010BD00F0EBFA010043
:10753000F9E7F8B506000F001400D518AC4201D1E8
:10754000002007E021783A003000FFF7DDFF01342A
:10755000431CF3D1F8BD0000F0B5A1B006000C004B
:107560001F000392002804D08369002B01D100F092
:10757000CDFC8E4B9C421CD17468636EDB0705D436
:10758000A3899B0502D4A06D00F061FDA3891B07B0
:1075900002D52369002B1DD12100300000F008FB2B
:1075A000002817D0636EDB070DD50120404221B0C3
:1075B000F0BD7F4B9C4201D1B468DEE77D4B9C421D
:1075C000DBD1F468D9E7A3899B05EED4A06D00F068
:1075D0003FFDEAE7002308AD6B6120336B76103383
:1075E000AB760797039F3B78002B01D0252B4ED11C
:1075F000039BFB1A0593039B9F420DD0059B210023
:107600003000039AFFF795FF431C00D1B5E06A698B
:10761000059B944663446B613B78002B00D1ACE042
:1076200001227B1C0393002352426A6004A9543256
:1076300052182B60EB60AB601370AB65039B0522A7
:1076400019785D4800F072FD039B5F1C002820D173
:107650002A68D30604D5532304A95B182021197086
:10766000130704D5532304A95B182B211970039B1E
:107670001B782A2B16D00021EB68039F3A78781CE0
:10768000303A8446092A4FD9002911D117E0013731
:10769000A9E7494B2A68C01A0123834013432B6092
:1076A0000397CBE7079B191D1B680791002B01DB94
:1076B0000B9304E05B42EB60022313432B603B78A7
:1076C0002E2B0AD17B782A2B37D1079B02371A1D24
:1076D0001B680792002B2DDB09930322397837486A
:1076E00000F024FD002807D0344B2A68C01A40233C
:1076F0008340134301372B6039787B1C06223048C6
:107700000393297600F012FD002845D02D4B002B65
:1077100027D10722079B07339343083307936B69ED
:10772000049A9B186B615DE70A214B4367469B18DF
:107730000939A3E701235B42CEE700231A00013792
:107740006B603978781C30398446092903D9002BBD
:10775000C3D00992C1E70A235A4367465218093B2E
:10776000EFE707AB0093220029003000164B00E042
:1077700000BF0490049B0133D1D1636EDB0705D4B5
:10778000A3899B0502D4A06D00F062FCA3895B066F
:1077900000D50AE70D980AE707AB009322002900FD
:1077A0003000094B00F082F8E3E7C0460C96000079
:1077B0002C960000EC950000B8950000BE950000E6
:1077C000C29500000000000033750000F7B51500F9
:1077D00001938A680B690C000090934200DA130051
:1077E00022002B6043321278002A01D001332B6033
:1077F00023689B0602D52B6802332B602268062380
:1078000017001F401A4227D0230043331B785A1E0B
:1078100093412268920630D4220001990098089E74
:107820004332B047431C25D0062320682A68E1680C
:1078300000250340042B03D18D1AEB43DB171D40B9
:10784000A3682269934201DD9B1AED180027BD420F
:1078500020D1002010E00137E3682A689B1ABB4260
:10786000D2DD2200012301990098089E1932B04709
:10787000431CF0D101204042FEBD3020E1184331CD
:10788000087021005A1C45310978A218433202338E
:107890001170C1E72200012301990098089E1A3255
:1078A000B047431CE6D00137D1E70000F0B58BB0FC
:1078B00006920A0043320793059004920A7E0C0058
:1078C000109B782A06D8622A08D8002A00D1C0E086
:1078D000582A52D026004236327022E01000633817
:1078E0001528F7D800F046FD16001F00F6FFF6FF3A
:1078F000F6FFF6FF1F00F6FFF6FFF6FFF6FFA80003
:1079000036009A00F6FFF6FFB900F6FF3600F6FFE4
:10791000F6FF9E0026001A684236111D1960136892
:1079200033700123A7E0086819680A1D05060BD506
:107930000D681A60002D03DA2D23049A6D4213702E
:10794000614B0A27039332E00D681A604106F1D5B6
:107950002DB2EFE70D681968081D18602E0601D5D5
:107960000D6803E06D06FBD50D68ADB2564B0A27D6
:1079700003936F2A17D1082715E045310A70524A40
:1079800003921A68216820CA1A60080650D5CB07EE
:1079900002D52023194321601027002D03D1202375
:1079A00022689A4322602300002243331A706368DE
:1079B000A360002B03DB0422216891432160002D8A
:1079C00002D1049E002B0CD0049E28003900FFF742
:1079D00017FC039B013E5B5C33702B0005009F424C
:1079E000F3D9082F09D12368DB0706D5636822691C
:1079F000934202DC3023013E3370049B9B1B2361C6
:107A0000079B210000930598069B09AAFFF7DEFE5D
:107A1000431C35D1012040420BB0F0BD2022096843
:107A20000A4322602200782145321170274AA7E7D5
:107A30004806ACD5ADB2AAE71A680D68101D4969B1
:107A4000186013682E0601D5196002E06D06FBD59B
:107A500019800023049E2361D2E71A68111D196062
:107A6000166800213000626800F060FB002801D039
:107A7000801B6060636823610023049A1370BFE772
:107A80002369320006990598079DA847431CC1D079
:107A900023689B0715D4099BE0689842BCDA18005C
:107AA000BAE72200012306990598079E1932B047CC
:107AB000431CAFD00135E368099A9B1AAB42F0DC56
:107AC000E9E70025F7E7C046C9950000DA95000010
:107AD000002370B5064D040008002B6000F08CFCFC
